:020000042000DA
:100000000884002091060020F1060020F10600205F
:10001000F1060020F1060020F1060020000000009B
:10002000000000000000000000000000F1060020B9
:10003000F106002000000000F1060020F10600207B
:10004000F1060020F1060020F1060020F106002054
:10005000F1060020F1060020F1060020F106002044
:10006000F1060020F1060020F1060020F106002034
:10007000F1060020F1060020F1060020F106002024
:10008000F1060020F1060020F1060020F106002014
:10009000F1060020F1060020F1060020F106002004
:1000A000F1060020F1060020F1060020F1060020F4
:1000B000F1060020F1060020F1060020F1060020E4
:1000C000F1060020F1060020F1060020F1060020D4
:1000D000F1060020F1060020F1060020F1060020C4
:1000E000F1060020F1060020F106002000000000CB
:1000F0000000000000000000000000000000000000
:100100000000000000000000F1060020F1060020C1
:10011000F1060020F106002045030020F106002032
:10012000F1060020F1060020F1060020F106002073
:10013000F1060020F1060020F1060020F106002063
:10014000F1060020F1060020F1060020F106002053
:100150005FF808F180B500AF1A4A1A4B1B6843F0EC
:10016000010313601749174B5A68174B13404B6034
:10017000144A144B1B6823F0847323F480331360F8
:10018000104A104B1B6823F4802313600D4A0D4B5B
:100190005B6823F4FE0353600A4A0A4B1B6823F092
:1001A000A0531360074B4FF47F029A60054B002267
:1001B000DA6200F00DF8054B4FF000629A6000BF64
:1001C00080BD00BF001002400000FFF000ED00E025
:1001D00080B500AF00F002F800BF80BD80B483B0EE
:1001E00000AF00237B6000233B60474A464B1B68FF
:1001F00043F480331360444B1B6803F400333B60CB
:100200007B6801337B603B68002B03D17B68B3F5CF
:10021000A06FF0D13C4B1B6803F40033002B02D0DD
:1002200001233B6001E000233B603B68012B66D16A
:10023000364A364B1B6843F010031360334A334B86
:100240001B6823F003031360304A304B1B6843F0F4
:10025000020313602C4A2C4B5B6853602A4A2A4BDA
:100260005B685360284A284B5B6843F480635360A3
:100270002549254BDA6A264B1340CB62224A224B92
:10028000DB6A43F4833343F04403D3621E4A1E4BBC
:100290001B6843F08063136000BF1B4B1B6803F0B7
:1002A0000063002BF9D0184A174B5B6823F47C13CA
:1002B0005360154A144B5B6843F4E8135360124AC9
:1002C000114B1B6843F08073136000BF0E4B1B681B
:1002D00003F00073002BF9D00B4A0B4B5B6823F043
:1002E00003035360084A084B5B6843F00203536002
:1002F00000BF054B5B6803F00C03082BF9D100BF6E
:100300000C37BD4680BC7047001002400020024000
:1003100000F0FEFF80B483B000AF0346FB710849D4
:1003200097F907305B09FA7902F01F02012000FA01
:1003300002F241F8232000BF0C37BD4680BC704755
:1003400000E100E080B582B000AF194A184B1B8A6B
:100350009BB223F001039BB213820023FB7109E0DF
:10036000FB791D2B03D9134800F0A8F808E0FB79AE
:100370000133FB71104B9B6803F00103002BEFD19D
:100380000023BB7109E0BB791D2B03D90B4800F09A
:10039000F1F808E0BB790133BB71074B9B6803F0B0
:1003A0000203002BEFD100BF0837BD4680BD00BF60
:1003B00000100040F80600200014014000800020DA
:1003C00080B500AF374B4FF000529A60364A364B3B
:1003D0009B6943F029039361334A334BDB6943F450
:1003E000001343F01003D361304A304B1B6823F0F5
:1003F000330313602D4A2D4B1B6823F0CC0313608D
:100400002A4A2A4B1B6843F088031360284A284B6A
:100410001B6823F04C531360254A254B1B6823F0BF
:100420004C431360224A224B1B6843F088531360ED
:100430001F4A1F4B1B6843F04C4313601D4A1D4B62
:100440001B889BB223F002039BB21380194B02223C
:100450009A80184BC8229A83164B03221A84154A95
:10046000144B1B889BB243F001039BB21380124BC9
:1004700047221A85104B41F287329A850E4A0E4B5D
:100480009B899BB243F001039BB293813620FFF717
:1004900041FF094A084B1B889BB243F001039BB202
:1004A0001380FEE700ED00E0001002400014014060
:1004B000000C0140005400400010004080B485B0A2
:1004C00000AF78602A4A2A4B1B889BB243F48073A2
:1004D0009BB2138000BF264B9B8A9BB203F00103A3
:1004E000002BF8D0224B9B8A214BA0221A8200BFFE
:1004F0001F4B9B8A9BB203F00203002BF8D01C4BCE
:100500009B8A1B4B1B8B1A4B01221A8200BF184B74
:100510009B8A9BB203F00403002BF8D0144B9B8AF8
:100520000023FB7313E01249FB7B7A6813441B78AA
:100530009BB20B8200BF0E4B9B8A9BB203F004035D
:10054000002BF8D00A4B9B8AFB7B0133FB73FB7BB0
:10055000022BE8D9064A064B1B889BB243F4007372
:100560009BB2138000BF1437BD4680BC704700BFEC
:100570000054004080B485B000AF7860434A434BDC
:100580001B889BB243F480639BB213803F4A3F4B6E
:100590001B889BB243F480739BB2138000BF3B4B1C
:1005A0009B8A9BB203F00103002BF8D0374B9B8A48
:1005B000364BA0221A8200BF344B9B8A9BB203F0B9
:1005C0000203002BF8D0314B9B8A304B1B8B2F4BF7
:1005D00001221A8200BF2D4B9B8A9BB203F080033D
:1005E000002BF8D0294B9B8A284A284B1B889BB2AA
:1005F00043F480739BB2138000BF244B9B8A9BB251
:1006000003F00103002BF8D0204B9B8A1F4BA12243
:100610001A8200BF1D4B9B8A9BB203F00203002B82
:10062000F8D01A4B9B8A194B1B8B0023FB731DE0E0
:10063000FB7B022B07D1154A144B1B889BB223F47A
:1006400080639BB2138000BF104B9B8A9BB203F068
:100650004003002BF8D0FB7B7A6813440B4A128AC4
:1006600092B2D2B21A70FB7B0133FB73FB7B022B7D
:10067000DED9064A054B1B889BB243F400739BB23C
:10068000138000BF1437BD4680BC70470054004043
:1006900080B582B000AF114B7B60114B3B6007E02F
:1006A0003B681A1D3A607A68111D796012681A60F9
:1006B0003B680C4A9342F3D30B480C494FF00002BD
:1006C0008842B8BF40F8042BFADBFFF743FDFFF781
:1006D00077FE00BF0837BD4680BD00BFFB06002087
:1006E0000080002000800020008000200480002086
:0B06F00080B400AFFEE70000171819EF
:0400000520000000D7
:00000001FF
